:020000040000FA
:04000000F9EF0FF015
:10060000003F065B4F666D7D077F6F777C395E79B3
:100610007100554C445253584142597354696D65A9
:1006200072204F46460054696D6572204F4E004D52
:100630006F646F3A004175746F00202020002A001B
:0506400043007C0000F6
:10064600100E5A6E000E596E000E5C6E000E5B6E3A
:10065600000E586E000E576E000E566E000E556E4A
:10066600000E546E000E536E1AEC0EF04AEC11F0AA
:1006760024EC10F067EC12F0C9EC10F0DFEC05F09A
:1006860045EC12F0750E026E300E016EF5EC11F0AF
:10069600B2EF05F055505610D8B454EF03F056EFAC
:1006A60003F0A7EF03F0580E5B1807E1020E5C1883
:1006B600D8A460EF03F062EF03F09EEF03F0000EA4
:1006C600566E000E556E000E5C6E000E5B6E06ECEE
:1006D60012F0640E06EC0FF0030E026EE80E016EC9
:1006E6003CEC0FF0000E06EC0FF0030E026EE80E67
:1006F600016E3CEC0FF0640E06EC0FF0030E026E7A
:10070600E80E016E3CEC0FF0000E06EC0FF0030E47
:10071600026EE80E016E3CEC0FF0640E06EC0FF074
:10072600030E026EE80E016E3CEC0FF0000E06ECB6
:100736000FF0A7EF03F05B06D8A05C06000E026E72
:10074600640E016E3CEC0FF0010E596ED7EF05F00A
:10075600030E196E020E046E580E036E5BC001F096
:100766005CC002F0CCEC0EF001C008F002C009F04B
:10077600000E0B6E0A0E0A6E6EEC0FF00850CDECF2
:100786000FF0020E196E170E046E700E036E5BC02C
:1007960001F05CC002F0CCEC0EF001C008F002C023
:1007A60009F0000E0B6E060E0A6E6EEC0FF0085086
:1007B600CDEC0FF0180E136E000E146E000E156EB3
:1007C600000E166EA00E056E8C0E066E000E076EDF
:1007D600000E086E5BC001F05CC002F0036A046A9A
:1007E60062EC0CF001C00FF002C010F003C011F073
:1007F60004C012F0E8EC0CF00FC049F010C04AF04B
:1008060011C04BF012C04CF0010E196E49C00FF02A
:100816004AC010F04BC011F04CC012F00A0E136E15
:10082600000E146E000E156E000E166EE8EC0CF03F
:100836000F50CDEC0FF0180E136E000E146E000E56
:10084600156E000E166EA00E056E8C0E066E000E50
:10085600076E000E086E5BC001F05CC002F0036A12
:10086600046A62EC0CF001C00FF002C010F003C085
:1008760011F004C012F0E8EC0CF00FC04DF010C0FF
:100886004EF011C04FF012C050F0000E196E4DC060
:1008960001F04EC002F04FC003F050C004F00A0E43
:1008A600056E000E066E000E076E000E086E62ECF8
:1008B6000CF00150CDEC0FF0020E596ED7EF05F09B
:1008C600000E106E000E0F6E000E126E000E116EF0
:1008D6002DEC11F0000E046E0A0E036E5AC001F0E4
:1008E600026A5EEC0DF001C009F002C00AF0000ECB
:1008F6000C6E0A0E0B6E74EC0EF00950300F27ECDE
:1009060012F05AC009F00A6A000E0C6E0A0E0B6E3F
:1009160074EC0EF00950300F27EC12F0030E596EEE
:10092600D7EF05F0C7EC0BF062EC12F05D50011842
:1009360009E15E500218D8B4A3EF04F0A5EF04F065
:1009460090EF05F062EC12F001C05DF002C05EF0BF
:100956005DA0B0EF04F0B2EF04F0CAEF04F0640E4D
:1009660006EC0FF0000E026E320E016E3CEC0FF03C
:10097600000E06EC0FF01E0E5A18D8B4C5EF04F0A0
:10098600C7EF04F090EF05F05A2A90EF05F05DA24C
:10099600CFEF04F0D1EF04F0F6EF04F0640E06ECAE
:1009A6000FF0000E026E320E016E3CEC0FF0000EE0
:1009B60006EC0FF07BEC11F0000E566E010E556E34
:1009C60053505410D8A4EAEF04F0ECEF04F090EF83
:1009D60005F0580E5B26020E5C22000E546E010EC8
:1009E600536E90EF05F05DA4FBEF04F0FDEF04F00D
:1009F60015EF05F0640E06EC0FF0000E026E320ED7
:100A0600016E3CEC0FF0000E06EC0FF00F0E5A18BC
:100A1600D8B410EF05F012EF05F090EF05F05A0686
:100A260090EF05F05DA61AEF05F01CEF05F030EF2C
:100A360005F0640E06EC0FF0000E026E320E016E2B
:100A46003CEC0FF0000E06EC0FF006EC12F0000E78
:100A5600566E000E556E90EF05F05DA835EF05F069
:100A660037EF05F057EF05F0640E06EC0FF0000EB9
:100A7600026E320E016E3CEC0FF0000E06EC0FF02B
:100A8600030E57185810D8A44BEF05F04DEF05F09C
:100A960053EF05F0000E586E000E576E90EF05F0FE
:100AA600574A582A90EF05F05DAA5CEF05F05EEF15
:100AB60005F070EF05F0640E06EC0FF0000E026E06
:100AC600320E016E3CEC0FF0000E06EC0FF0B80E85
:100AD6005B260B0E5C2290EF05F05DAE75EF05F020
:100AE60077EF05F090EF05F0640E06EC0FF0000EC0
:100AF600026E320E016E3CEC0FF0000E06EC0FF0AB
:100B06005B505C10D8B48AEF05F08CEF05F090EFDF
:100B160005F0B80E5B5E0B0E5C5A040E596ED7EFED
:100B260005F0000E026E000E016E7AEC10F001C0A8
:100B360051F002C052F051C015F052C016F097ECB9
:100B460009F0050E596ED7EF05F057C015F058C0DD
:100B560016F0C0EC0DF0000E596ED7EF05F05950A7
:100B6600476E486A4850000AD8B4BCEF05F0AEEFAD
:100B760005F04750000AD8B44DEF03F0010AD8B487
:100B8600ABEF03F0030AD8B463EF04F0010AD8B45C
:100B960095EF04F0070AD8B494EF05F0010AD8B42B
:100BA600A8EF05F0AEEF05F05CEC0AF05AEC12F097
:100BB60045EF03F000EF00F0000E106E000E0F6E12
:100BC600000E126E040E116E2DEC11F0420E0F6E19
:100BD600060E106E4FEC10F0000E106E010E0F6E2A
:100BE600000E126E040E116E2DEC11F0420E0F6EF9
:100BF600060E106E4FEC10F0000E106E000E0F6E0B
:100C0600000E126E0F0E116E2DEC11F0420E0F6ECD
:100C1600060E106E4FEC10F0000E106E010E0F6EE9
:100C2600000E126E0F0E116E2DEC11F0420E0F6EAD
:100C3600060E106E4FEC10F0000E106E000E0F6ECA
:100C4600000E126E050E116E2DEC11F01C0E0F6EBD
:100C5600060E106E4FEC10F0000E106E010E0F6EA9
:100C6600000E126E050E116E2DEC11F02F0E0F6E8A
:100C7600060E106E4FEC10F0000E106E000E0F6E8A
:100C8600000E126E020E116E2DEC11F0DF0E27EC27
:100C960012F0400E0F6E060E106E4FEC10F020EEA6
:100CA60067F010EE15F0070EDBCFE3FFE806FCE277
:100CB60020EE5FF010EE1DF0070EDBCFE3FFE80637
:100CC600FCE220EE98F010EE25F0070EDBCFE3FFF6
:100CD600E806FCE220EE90F010EE2DF0070EDBCFDA
:100CE600E3FFE806FCE220EE88F010EE35F0070E92
:100CF600DBCFE3FFE806FCE220EE80F010EE3DF0ED
:100D0600070EDBCFE3FFE806FCE2400E36EC12F0FE
:100D1600000E466E000E456E150E4524D96E000E69
:100D26004620DA6EDF5027EC12F0454A462A46BEC8
:100D3600A6EF06F0465009E1080E455CD8A0A6EFDE
:100D460006F0A8EF06F08FEF06F0480E36EC12F02C
:100D5600000E466E000E456E1D0E4524D96E000E21
:100D66004620DA6EDF5027EC12F0454A462A46BE88
:100D7600C6EF06F0465009E1080E455CD8A0C6EF5E
:100D860006F0C8EF06F0AFEF06F0500E36EC12F0A4
:100D9600000E466E000E456E250E4524D96E000ED9
:100DA6004620DA6EDF5027EC12F0454A462A46BE48
:100DB600E6EF06F0465009E1080E455CD8A0E6EFDE
:100DC60006F0E8EF06F0CFEF06F0580E36EC12F01C
:100DD600000E466E000E456E2D0E4524D96E000E91
:100DE6004620DA6EDF5027EC12F0454A462A46BE08
:100DF60006EF07F0465009E1080E455CD8A006EF5D
:100E060007F008EF07F0EFEF06F0600E36EC12F091
:100E1600000E466E000E456E350E4524D96E000E48
:100E26004620DA6EDF5027EC12F0454A462A46BEC7
:100E360026EF07F0465009E1080E455CD8A026EFDC
:100E460007F028EF07F00FEF07F0680E36EC12F008
:100E5600000E466E000E456E3D0E4524D96E000E00
:100E66004620DA6EDF5027EC12F0454A462A46BE87
:100E760046EF07F0465009E1080E455CD8A046EF5C
:100E860007F048EF07F02FEF07F0120002BE57EF0A
:100E960007F0025007E1080E015CD8B055EF07F0E5
:100EA60057EF07F081EF07F003500410D8B45EEF58
:100EB60007F060EF07F070EF07F001C005F0010ED4
:100EC600066E052A69EF07F0D8900636052E67EFFD
:100ED60007F0065080126FEF08F001C005F0010E12
:100EE600066E052A79EF07F0D8900636052E77EFBD
:100EF60007F00650FF0A80166FEF08F002BE8FEF6C
:100F060007F0025007E1100E015CD8B08DEF07F034
:100F16008FEF07F0BDEF07F0F80E0126FF0E022255
:100F260003500410D8B49AEF07F09CEF07F0ACEF2B
:100F360007F001C005F0010E066E052AA5EF07F0C1
:100F4600D8900636052EA3EF07F0065081126FEFF4
:100F560008F001C005F0010E066E052AB5EF07F090
:100F6600D8900636052EB3EF07F00650FF0A811615
:100F76006FEF08F002BECBEF07F0025007E1180E44
:100F8600015CD8B0C9EF07F0CBEF07F0F9EF07F037
:100F9600F00E0126FF0E022203500410D8B4D6EF3D
:100FA60007F0D8EF07F0E8EF07F001C005F0010EF3
:100FB600066E052AE1EF07F0D8900636052EDFEF1C
:100FC60007F0065082126FEF08F001C005F0010E1F
:100FD600066E052AF1EF07F0D8900636052EEFEFDC
:100FE60007F00650FF0A82166FEF08F002BE07EF01
:100FF60008F0025007E1200E015CD8B005EF08F0BA
:1010060007EF08F035EF08F0E80E0126FF0E022282
:1010160003500410D8B412EF08F014EF08F024EFD0
:1010260008F001C005F0010E066E052A1DEF08F056
:10103600D8900636052E1BEF08F0065083126FEF88
:1010460008F001C005F0010E066E052A2DEF08F026
:10105600D8900636052E2BEF08F00650FF0A8316A9
:101066006FEF08F002BE43EF08F0025007E1280ECA
:10107600015CD8B041EF08F043EF08F06FEF08F0DD
:10108600E00E0126FF0E022203500410D8B44EEFE4
:1010960008F050EF08F060EF08F001C005F0010E0F
:1010A600066E052A59EF08F0D8900636052E57EF3A
:1010B60008F0065084126FEF08F001C005F0010E2B
:1010C600066E052A69EF08F0D8900636052E67EFFA
:1010D60008F00650FF0A8416120002BE7EEF08F0E2
:1010E600025007E1080E015CD8B07CEF08F07EEFF5
:1010F60008F0A8EF08F003500410D8B485EF08F004
:1011060087EF08F097EF08F001C005F0010E066EB4
:10111600052A90EF08F0D8900636052E8EEF08F0D7
:101126000650921296EF09F001C005F0010E066E08
:10113600052AA0EF08F0D8900636052E9EEF08F097
:101146000650FF0A921696EF09F002BEB6EF08F0B7
:10115600025007E1100E015CD8B0B4EF08F0B6EF0C
:1011660008F0E4EF08F003500410D8B4BDEF08F01F
:10117600BFEF08F0D1EF08F001C005F0F80E052624
:10118600010E066E052ACAEF08F0D8900636052E1F
:10119600C8EF08F00650931296EF09F001C005F06B
:1011A600F80E0526010E066E052ADCEF08F0D8902B
:1011B6000636052EDAEF08F00650FF0A931696EF6C
:1011C60009F002BEF2EF08F0025007E1180E015CCA
:1011D600D8B0F0EF08F0F2EF08F020EF09F0035076
:1011E6000410D8B4F9EF08F0FBEF08F00DEF09F0A2
:1011F60001C005F0F00E0526010E066E052A06EF63
:1012060009F0D8900636052E04EF09F00650941220
:1012160096EF09F001C005F0F00E0526010E066EE8
:10122600052A18EF09F0D8900636052E16EF09F0B4
:101236000650FF0A941696EF09F002BE2EEF09F04B
:10124600025007E1200E015CD8B02CEF09F02EEF1A
:1012560009F05CEF09F003500410D8B435EF09F03B
:1012660037EF09F049EF09F001C005F0E80E052651
:10127600010E066E052A42EF09F0D8900636052EB5
:1012860040EF09F00650951296EF09F001C005F0FF
:10129600E80E0526010E066E052A54EF09F0D890D1
:1012A6000636052E52EF09F00650FF0A951696EF00
:1012B60009F002BE6AEF09F0025007E1280E015C50
:1012C600D8B068EF09F06AEF09F096EF09F003501D
:1012D6000410D8B471EF09F073EF09F085EF09F047
:1012E60001C005F0E00E0526010E066E052A7EEF0A
:1012F60009F0D8900636052E7CEF09F006509612B6
:1013060096EF09F001C005F0E00E0526010E066E07
:10131600052A90EF09F0D8900636052E8EEF09F0D3
:101326000650FF0A96161200000E106E010E0F6E82
:10133600000E126E000E116E2DEC11F016BEACEF03
:1013460009F01504030E1658D8A0ACEF09F0AEEF5D
:1013560009F0BAEF09F0030E27EC12F0020E27ECA3
:1013660012F0010E27EC12F0000E27EC12F016BE5A
:10137600C5EF09F01504020E1658D8A0C5EF09F0FE
:10138600C7EF09F0E2EF09F016BED3EF09F0030E3E
:10139600165CD8B0D1EF09F0D3EF09F0E2EF09F00F
:1013A600030E27EC12F0020E27EC12F0010E27ECCA
:1013B60012F03C0E0F6E060E106E4FEC10F016BEBD
:1013C600EDEF09F01504010E1658D8A0EDEF09F05F
:1013D600EFEF09F00DEF0AF016BEFBEF09F0020E73
:1013E600165CD8B0F9EF09F0FBEF09F00DEF0AF043
:1013F600030E27EC12F0020E27EC12F03C0E0F6ED5
:10140600060E106E4FEC10F03C0E0F6E060E106EB0
:101416004FEC10F016BE18EF0AF0165008E115044E
:10142600D8A018EF0AF01AEF0AF03AEF0AF016BE43
:1014360025EF0AF01604D8B023EF0AF025EF0AF0DC
:101446003AEF0AF0030E27EC12F03C0E0F6E060E72
:10145600106E4FEC10F03C0E0F6E060E106E4FEC39
:1014660010F03C0E0F6E060E106E4FEC10F015507D
:101476001610D8A441EF0AF043EF0AF05BEF0AF02A
:101486003C0E0F6E060E106E4FEC10F03C0E0F6EFB
:10149600060E106E4FEC10F03C0E0F6E060E106E20
:1014A6004FEC10F03C0E0F6E060E106E4FEC10F067
:1014B6001200000E026E180E016E000E046E000E73
:1014C600036E49EC07F0000E026E190E016E000E57
:1014D600046E000E036E49EC07F0000E026E1A0E43
:1014E600016E000E046E000E036E49EC07F0000E4E
:1014F600026E1B0E016E000E046E000E036E49ECAA
:1015060007F0000E086E000E076EA2EC10F0F4EF66
:101516000AF0010E7924F66EF76A060EF722080025
:10152600F550076E086AA2EC10F0000E026E180E57
:10153600016E000E046E010E036E49EC07F0010EFB
:101546007A6E11EF0BF0010E7824F66EF76A060E2E
:10155600F7220800F550076E086AA2EC10F0000E9C
:10156600026E190E016E000E046E010E036E49EC3A
:1015760007F0020E7A6E11EF0BF0010E7724F66E6D
:10158600F76A060EF7220800F550076E086AA2EC05
:1015960010F0000E026E1A0E016E000E046E010EA1
:1015A600036E49EC07F0030E7A6E11EF0BF0010E95
:1015B6007624F66EF76A060EF7220800F550076ED7
:1015C600086AA2EC10F0000E026E1B0E016E000EF1
:1015D600046E010E036E49EC07F0000E7A6E11EFF1
:1015E6000BF07A500A6E0B6A0B50000AD8B4FEEF65
:1015F6000AF0F0EF0AF00A50000AD8B48CEF0AF0AD
:10160600010AD8B4A6EF0AF0030AD8B4C0EF0AF06C
:10161600010AD8B4DAEF0AF0F0EF0AF0120002BEBF
:1016260020EF0BF0025007E1080E015CD8B01EEF68
:101636000BF020EF0BF034EF0BF001C003F0010EBE
:10164600046E032A29EF0BF0D8900436032E27EFF9
:101656000BF004508014056E0550016E026AC6EF49
:101666000BF002BE42EF0BF0025007E1100E015CD8
:10167600D8B040EF0BF042EF0BF058EF0BF001C083
:1016860003F0F80E0326010E046E032A4DEF0BF04D
:10169600D8900436032E4BEF0BF004508114056EE0
:1016A6000550016E026AC6EF0BF002BE66EF0BF044
:1016B600025007E1180E015CD8B064EF0BF066EF3C
:1016C6000BF07CEF0BF001C003F0F00E0326010EC9
:1016D600046E032A71EF0BF0D8900436032E6FEFD9
:1016E6000BF004508214056E0550016E026AC6EFB7
:1016F6000BF002BE8AEF0BF0025007E1200E015CF0
:10170600D8B088EF0BF08AEF0BF0A0EF0BF001C01A
:1017160003F0E80E0326010E046E032A95EF0BF084
:10172600D8900436032E93EF0BF004508314056E05
:101736000550016E026AC6EF0BF002BEAEEF0BF06B
:10174600025007E1280E015CD8B0ACEF0BF0AEEF0B
:101756000BF0C4EF0BF001C003F0E00E0326010E00
:10176600046E032AB9EF0BF0D8900436032EB7EFB8
:101776000BF004508414056E0550016E026AC6EF24
:101786000BF0016802681200000E726E000E716E98
:10179600000E0E6E000E0D6E0EBEDBEF0BF00E5041
:1017A60009E1050E0D5CD8A0DBEF0BF0DDEF0BF0C9
:1017B600DFEF0BF040EF0CF00DC00AF0030E0A2627
:1017C600010E0B6E000E0C6E0A2AEDEF0BF0D89090
:1017D6000B360C360A2EEAEF0BF00BC007F00CC0E6
:1017E60008F0A2EC10F0000E026E0A0E016E12EC6A
:1017F6000BF001500210D8B403EF0CF005EF0CF01B
:1018060018EF0CF00DC00AF0010E0B6E000E0C6EF8
:101816000A2A11EF0CF0D8900B360C360A2E0EEF72
:101826000CF00B5071120C507212000E026E090E63
:10183600016E12EC0BF001500210D8B425EF0CF03B
:1018460027EF0CF03CEF0CF00DC00AF0050E0A264F
:10185600010E0B6E000E0C6E0A2A35EF0CF0D890B6
:101866000B360C360A2E32EF0CF00B5071120C5060
:1018760072120D4A0E2ACFEF0BF071506F1807E166
:1018860072507018D8A44AEF0CF04CEF0CF04FEFE2
:101896000CF07B0655EF0CF0010E7B6E71C06FF0FD
:1018A60072C070F07B50D8A45BEF0CF05DEF0CF0CB
:1018B60061EF0CF06FC073F070C074F01200000E90
:1018C6000A6E08BE6BEF0CF069EF0CF075EF0CF0CA
:1018D600081E071E061E056C000E06220722082299
:1018E600010E0A6E04BE7CEF0CF07AEF0CF086EF68
:1018F6000CF0041E031E021E016C000E02220322BF
:101906000422010E0A1A000E0B6E000E0C6E000E5B
:101916000D6E000E0E6E0550061007100810D8B496
:1019260097EF0CF099EF0CF0CFEF0CF0010E096E6B
:10193600A3EF0CF0D8900536063607360836092A86
:1019460008AEA8EF0CF0AAEF0CF09DEF0CF0D890C3
:101956000B360C360D360E360550015C0650025815
:101966000750035808500458D8A0BCEF0CF0BEEF3F
:101976000CF0C7EF0CF00550015E0650025A0750F6
:10198600035A0850045A0B80D890083207320632A0
:101996000532092EAAEF0CF00A50D8B4D5EF0CF098
:1019A600D7EF0CF0DFEF0CF00E1E0D1E0C1E0B6CAD
:1019B600000E0C220D220E220BC001F00CC002F00C
:1019C6000DC003F00EC004F01200000E186E12BE19
:1019D600F1EF0CF0EFEF0CF0FBEF0CF0121E111E06
:1019E600101E0F6C000E102211221222010E186E0C
:1019F60016BE02EF0DF000EF0DF00AEF0DF0161E09
:101A0600151E141E136C000E1422152216221350D6
:101A1600141015101610D8B413EF0DF015EF0DF0C5
:101A260045EF0DF0010E176E1FEF0DF0D89013362F
:101A3600143615361636172A16AE24EF0DF026EF95
:101A46000DF019EF0DF013500F5C1450105815508F
:101A5600115816501258D8A033EF0DF035EF0DF08F
:101A66003DEF0DF013500F5E1450105A1550115AD9
:101A76001650125AD8901632153214321332172EC7
:101A860026EF0DF01850D8B44BEF0DF04DEF0DF0DA
:101A960055EF0DF0121E111E101E0F6C000E1022B7
:101AA600112212220FC00FF010C010F011C011F059
:101AB60012C012F01200000E066E04BE67EF0DF0A3
:101AC60065EF0DF06DEF0DF0036C041ED8B0042A1F
:101AD600010E066E02BE74EF0DF072EF0DF07AEF96
:101AE6000DF0016C021ED8B0022A010E061A000E75
:101AF600086E000E076E03500410D8B485EF0DF083
:101B060087EF0DF0AFEF0DF0010E056E8FEF0DF0C4
:101B1600D89003360436052A04AE94EF0DF096EFFE
:101B26000DF08BEF0DF0D890073608360350015CA8
:101B360004500258D8A0A2EF0DF0A4EF0DF0A9EFC3
:101B46000DF00350015E0450025A0780D89004320B
:101B56000332052E96EF0DF00650D8B4B5EF0DF012
:101B6600B7EF0DF0BBEF0DF0076C081ED8B0082AD2
:101B760007C001F008C002F01200000E106E010E40
:101B86000F6E000E126E0B0E116E2DEC11F0FBEFA8
:101B96000DF0350E0F6E060E106E4FEC10F019EFAD
:101BA6000EF03E0E0F6E060E106E4FEC10F03A0E53
:101BB6000F6E060E106E4FEC10F019EF0EF0040EBD
:101BC60027EC12F0040E27EC12F03B0E0F6E060EF9
:101BD600106E4FEC10F019EF0EF0050E27EC12F018
:101BE6003A0E0F6E060E106E4FEC10F019EF0EF057
:101BF60015C017F016C018F01850000AD8B406EF32
:101C06000EF019EF0EF01750000AD8B4CCEF0DF015
:101C1600010AD8B4D4EF0DF0030AD8B4E2EF0DF000
:101C2600010AD8B4F0EF0DF019EF0EF01200000E15
:101C3600026E1C0E016E000E046E000E036E70EC3A
:101C460008F0000E026E1D0E016E000E046E000EF0
:101C5600036E70EC08F00EEC11F0000E026E0F0E23
:101C6600016E63EC11F0000E0B6E000E0A6E030E91
:101C7600E2EC11F0000E026E050E016E63EC11F03F
:101C8600000E0B6E000E0A6E030EE2EC11F0000E53
:101C9600026EA00E016E6BEC12F0000E0B6E000EC3
:101CA6000A6E030EE2EC11F0000E026EA00E016E3B
:101CB6006BEC12F0000E0B6E000E0A6E020EE2ECDA
:101CC60011F0000E026E0A0E016E63EC11F0280E82
:101CD60036EC12F00C0E36EC12F0010E36EC12F069
:101CE6001200000E0E6E0ABE7DEF0EF07BEF0EF0B8
:101CF60083EF0EF0096C0A1ED8B00A2A010E0E6E8A
:101D06000CBE8AEF0EF088EF0EF08EEF0EF00B6C25
:101D16000C1ED8B00C2A0B500C10D8B495EF0EF050
:101D260097EF0EF0BBEF0EF0010E0D6E9FEF0EF06B
:101D3600D8900B360C360D2A0CAEA4EF0EF0A6EF9B
:101D46000EF09BEF0EF00B50095C0C500A58D8A011
:101D5600AFEF0EF0B1EF0EF0B5EF0EF00B50095EDF
:101D66000C500A5AD8900C320B320D2EA6EF0EF0FC
:101D76000E50D8B4C1EF0EF0C3EF0EF0C7EF0EF061
:101D8600096C0A1ED8B00A2A09C009F00AC00AF06E
:101D96001200000E066E000E056E03500410D8B435
:101DA600D7EF0EF0D9EF0EF001EF0FF0010E076E30
:101DB600E1EF0EF0D89003360436072A04AEE6EFBC
:101DC6000EF0E8EF0EF0DDEF0EF0D8900536063691
:101DD6000350015C04500258D8A0F4EF0EF0F6EF61
:101DE6000EF0FBEF0EF00350015E0450025A058020
:101DF600D89004320332072EE8EF0EF005C001F04A
:101E060006C002F012000A6E010ECB24016E026AB1
:101E1600000E02220AC003F0046ABCEC11F001C0F5
:101E26000BF002C00CF00BC001F00CC002F0000E6B
:101E3600046E190E036ECCEC0EF001C00BF002C05E
:101E46000CF0FF0E0B16030E0C160BC008F00CC0A0
:101E560009F0D89009320832D89009320832085071
:101E6600BB6E0BC008F0030E08160838F00BBA124A
:101E76001200000E046E000E036E62EF0FF0000EED
:101E8600056E280E05644AEF0FF04CEF0FF04EEF8B
:101E96000FF060EF0FF0000E066E020E066456EFAE
:101EA6000FF058EF0FF05AEF0FF05DEF0FF0062A24
:101EB60050EF0FF0052A44EF0FF0034A042A0150B1
:101EC600035C02500458D8A06BEF0FF06DEF0FF0D3
:101ED60042EF0FF012000A500B10D8B475EF0FF056
:101EE60077EF0FF09BEF0FF0010E0C6E7FEF0FF008
:101EF600D8900A360B360C2A0BAE84EF0FF086EF1D
:101F06000FF07BEF0FF00A50085C0B500958D8A071
:101F16008FEF0FF091EF0FF095EF0FF00A50085E7C
:101F26000B50095AD8900B320A320C2E86EF0FF05E
:101F360008C008F009C009F012000D6E0DC00CF0C3
:101F46000C3A0F0E0C160C50076E086AA2EC10F035
:101F5600000E026E1D0E016E0AC003F00BC004F0E7
:101F660049EC07F0EDEC10F00DC00CF00F0E0C165E
:101F76000C50076E086AA2EC10F0000E026E1D0EE1
:101F8600016E0AC003F00BC004F049EC07F0EDEC5B
:101F960010F012001A6E1950D8A4D4EF0FF0D6EF35
:101FA6000FF0D8EF0FF01AC079F01904D8A4DEEFBD
:101FB6000FF0E0EF0FF0E2EF0FF01AC078F0020E2C
:101FC6001918D8A4E9EF0FF0EBEF0FF0EDEF0FF0D3
:101FD6001AC077F0030E1918D8A4F4EF0FF0F6EF35
:101FE6000FF0F8EF0FF01AC076F012002E0EF66E14
:101FF600240EF76E000EF86E00EE80F010EE20F064
:102006000900F5CFEEFFE550E150FAE1A40EF66EB9
:10201600240EF76E000EF86E00EE5FF010EE10F074
:102026000900F5CFEEFFE550E150FAE100EE6FF062
:102036000D0EEE6AE806FDE1000EF86E000123EFD4
:1020460003F0000E026E180E016E000E046E000EF6
:10205600036E70EC08F0000E026E190E016E000E93
:10206600046E000E036E70EC08F0000E026E1A0E7F
:10207600016E000E046E000E036E70EC08F0000E8A
:10208600026E1B0E016E000E046E000E036E70ECE7
:1020960008F00EEC11F01200000E146E000E136E16
:1020A60065EF10F013500F24116E14501020126EAD
:1020B60011C0F6FF12C0F7FF0800F55027EC12F02A
:1020C600134A142A13500F24116E14501020126E46
:1020D60011C0F6FF12C0F7FF0800F5500009D8A49A
:1020E60077EF10F079EF10F055EF10F01200C30EF5
:1020F600C216025007E1030E015CD8B085EF10F05E
:1021060087EF10F08BEF10F00144E846FC0BC2128B
:10211600C282C2B291EF10F093EF10F08CEF10F084
:10212600C4CF03F0046A0350046E036AC350032647
:10213600000E042203C001F004C002F01200000EDB
:10214600026E080E016E000E046E000E036E49EC60
:1021560007F0000E096E000E026E1E0E016E800E56
:102166000714036E046A49EC07F0A7EC11F0D89047
:1021760007360836092A070E0964C4EF10F0C6EFC1
:1021860010F0AEEF10F092EC11F01200000E026E9D
:10219600000E016E000E046E010E036E70EC08F068
:1021A600000E026E010E016E000E046E010E036E2D
:1021B60070EC08F0000E026E020E016E000E046E48
:1021C600010E036E70EC08F0C2800C0EC16EAA0EF2
:1021D600C06E1200000E026E1C0E016E000E046E22
:1021E600010E036E49EC07F0000E026E050E016E3D
:1021F6006BEC12F0000E026E1C0E016E000E046EE9
:10220600000E036E49EC07F0000E026E050E016E1D
:102216006BEC12F01200000E026E1F0E016E000E25
:10222600046E000E036E70EC08F0000E026E080ECF
:10223600016E000E046E000E036E70EC08F0000EC8
:10224600026E1E0E016E000E046E000E036E70EC22
:1022560008F012000F501010D8A434EF11F036EF2A
:1022660011F03BEF11F011500F0B800F36EC12F00E
:102276000F041010D8A442EF11F044EF11F049EF0B
:1022860011F011500F0BC00F36EC12F012000EECCD
:1022960011F0000E026E0A0E016E000E046E010EA3
:1022A600036E70EC08F0000E026E090E016E000E51
:1022B600046E010E036E70EC08F00C0EC16E120077
:1022C600000E056E000E046E6BEF11F0044A052A2F
:1022D6000150045C0550800A036E0250800A0358C0
:1022E600D8A078EF11F07AEF11F069EF11F0120033
:1022F600000E106E000E0F6E000E126E050E116EA1
:102306002DEC11F0260E0F6E060E106E4FEC10F02F
:102316003C0E0F6E060E106E4FEC10F01200000E03
:10232600026E1F0E016E000E046E010E036E49EC66
:1023360007F0000E026E1F0E016E000E046E000EF8
:10234600036E49EC07F01200000E026E080E016ED5
:10235600000E046E010E036E49EC07F0000E026ECD
:10236600080E016E000E046E000E036E49EC07F0B7
:10237600120001500302F3CF05F0F4CF06F001502E
:102386000402F350062602500302F350062605C047
:1023960001F006C002F01200480E016EE80E026E51
:1023A600010E036E000E046E0FC005F010C006F09D
:1023B600076A086A62EC0CF00104CB6E12000C6E20
:1023C6000CC007F0086AA2EC10F0000E026E1D0E9B
:1023D600016E0AC003F00BC004F049EC07F0EDEC07
:1023E60010F01200D8900134036E0234046E031EFE
:1023F600041E320E035E000E045A0450D76E03C04C
:10240600D6FFF2941200000E106E000E0F6E000E34
:10241600126E050E116E2DEC11F01C0E0F6E060ECF
:10242600106E4FEC10F012000000131A040B190086
:10243600020408040204080000000000000E0E005A
:10244600000000000E0E0E000E6E000E0B6E010E4A
:102456000A6E0E50A0EC0FF0000E026E500E016ECA
:102466006BEC12F012000E6E000E0B6E000E0A6E72
:102476000E50A0EC0FF0000E026E020E016E63EC21
:1024860011F012009492030ECA12CA840C0EBA6E90
:10249600000E106E640E0F6ECFEC11F012000000ED
:1024A600000E0E0E0E00000E0E0E0E0E0E00F2A404
:1024B6005FEF12F061EF12F05AEF12F0120073C0E4
:1024C60001F074C002F01200080ED56ED58E12000F
:0224D6001200F2
:020000040020DA
:08000000FFFFFFFFFFFFFFFF00
:020000040030CA
:0E000000FF027100FF8380FF0FC00FE00F4072
:00000001FF
